{
	"contracts/PropertyRegistry.sol": {
		"PropertyRegistry": {
			"abi": [
				{
					"anonymous": false,
					"inputs": [
						{
							"indexed": true,
							"internalType": "uint256",
							"name": "propertyId",
							"type": "uint256"
						},
						{
							"indexed": true,
							"internalType": "address",
							"name": "previousOwner",
							"type": "address"
						},
						{
							"indexed": true,
							"internalType": "address",
							"name": "newOwner",
							"type": "address"
						}
					],
					"name": "OwnershipTransferred",
					"type": "event"
				},
				{
					"anonymous": false,
					"inputs": [
						{
							"indexed": true,
							"internalType": "uint256",
							"name": "propertyId",
							"type": "uint256"
						},
						{
							"indexed": true,
							"internalType": "address",
							"name": "owner",
							"type": "address"
						}
					],
					"name": "PropertyRegistered",
					"type": "event"
				},
				{
					"inputs": [
						{
							"internalType": "uint256",
							"name": "propertyId",
							"type": "uint256"
						}
					],
					"name": "getPropertyOwner",
					"outputs": [
						{
							"internalType": "address",
							"name": "",
							"type": "address"
						}
					],
					"stateMutability": "view",
					"type": "function"
				},
				{
					"inputs": [],
					"name": "owner",
					"outputs": [
						{
							"internalType": "address",
							"name": "",
							"type": "address"
						}
					],
					"stateMutability": "view",
					"type": "function"
				},
				{
					"inputs": [
						{
							"internalType": "uint256",
							"name": "",
							"type": "uint256"
						}
					],
					"name": "properties",
					"outputs": [
						{
							"internalType": "address",
							"name": "owner",
							"type": "address"
						}
					],
					"stateMutability": "view",
					"type": "function"
				},
				{
					"inputs": [
						{
							"internalType": "uint256",
							"name": "propertyId",
							"type": "uint256"
						},
						{
							"internalType": "address",
							"name": "newOwner",
							"type": "address"
						}
					],
					"name": "registerProperty",
					"outputs": [],
					"stateMutability": "nonpayable",
					"type": "function"
				},
				{
					"inputs": [
						{
							"internalType": "uint256",
							"name": "propertyId",
							"type": "uint256"
						},
						{
							"internalType": "address",
							"name": "newOwner",
							"type": "address"
						}
					],
					"name": "transferOwnership",
					"outputs": [],
					"stateMutability": "nonpayable",
					"type": "function"
				}
			],
			"devdoc": {
				"kind": "dev",
				"methods": {},
				"version": 1
			},
			"evm": {
				"assembly": "    /* \"contracts/PropertyRegistry.sol\":82:1317  contract PropertyRegistry is Ownable {... */\n  mstore(0x40, 0x80)\n  callvalue\n  dup1\n  iszero\n  tag_1\n  jumpi\n  0x00\n  dup1\n  revert\ntag_1:\n  pop\n    /* \"contracts/Ownable.sol\":139:149  msg.sender */\n  caller\n    /* \"contracts/Ownable.sol\":131:136  owner */\n  0x00\n  dup1\n    /* \"contracts/Ownable.sol\":131:149  owner = msg.sender */\n  0x0100\n  exp\n  dup2\n  sload\n  dup2\n  0xffffffffffffffffffffffffffffffffffffffff\n  mul\n  not\n  and\n  swap1\n  dup4\n  0xffffffffffffffffffffffffffffffffffffffff\n  and\n  mul\n  or\n  swap1\n  sstore\n  pop\n    /* \"contracts/PropertyRegistry.sol\":82:1317  contract PropertyRegistry is Ownable {... */\n  dataSize(sub_0)\n  dup1\n  dataOffset(sub_0)\n  0x00\n  codecopy\n  0x00\n  return\nstop\n\nsub_0: assembly {\n        /* \"contracts/PropertyRegistry.sol\":82:1317  contract PropertyRegistry is Ownable {... */\n      mstore(0x40, 0x80)\n      callvalue\n      dup1\n      iszero\n      tag_1\n      jumpi\n      0x00\n      dup1\n      revert\n    tag_1:\n      pop\n      jumpi(tag_2, lt(calldatasize, 0x04))\n      shr(0xe0, calldataload(0x00))\n      dup1\n      0x29507f73\n      eq\n      tag_3\n      jumpi\n      dup1\n      0x87b7a715\n      eq\n      tag_4\n      jumpi\n      dup1\n      0x8da5cb5b\n      eq\n      tag_5\n      jumpi\n      dup1\n      0xe34fc531\n      eq\n      tag_6\n      jumpi\n      dup1\n      0xf7b10808\n      eq\n      tag_7\n      jumpi\n    tag_2:\n      0x00\n      dup1\n      revert\n        /* \"contracts/PropertyRegistry.sol\":733:1181  function transferOwnership(uint256 propertyId, address newOwner) public {... */\n    tag_3:\n      tag_8\n      0x04\n      dup1\n      calldatasize\n      sub\n      dup2\n      add\n      swap1\n      tag_9\n      swap2\n      swap1\n      tag_10\n      jump\t// in\n    tag_9:\n      tag_11\n      jump\t// in\n    tag_8:\n      stop\n        /* \"contracts/PropertyRegistry.sol\":443:727  function registerProperty(uint256 propertyId, address newOwner) public onlyOwner {... */\n    tag_4:\n      tag_12\n      0x04\n      dup1\n      calldatasize\n      sub\n      dup2\n      add\n      swap1\n      tag_13\n      swap2\n      swap1\n      tag_10\n      jump\t// in\n    tag_13:\n      tag_14\n      jump\t// in\n    tag_12:\n      stop\n        /* \"contracts/Ownable.sol\":80:100  address public owner */\n    tag_5:\n      tag_15\n      tag_16\n      jump\t// in\n    tag_15:\n      mload(0x40)\n      tag_17\n      swap2\n      swap1\n      tag_18\n      jump\t// in\n    tag_17:\n      mload(0x40)\n      dup1\n      swap2\n      sub\n      swap1\n      return\n        /* \"contracts/PropertyRegistry.sol\":1187:1315  function getPropertyOwner(uint256 propertyId) public view returns (address) {... */\n    tag_6:\n      tag_19\n      0x04\n      dup1\n      calldatasize\n      sub\n      dup2\n      add\n      swap1\n      tag_20\n      swap2\n      swap1\n      tag_21\n      jump\t// in\n    tag_20:\n      tag_22\n      jump\t// in\n    tag_19:\n      mload(0x40)\n      tag_23\n      swap2\n      swap1\n      tag_18\n      jump\t// in\n    tag_23:\n      mload(0x40)\n      dup1\n      swap2\n      sub\n      swap1\n      return\n        /* \"contracts/PropertyRegistry.sol\":184:237  mapping(uint256 => PropertyDetails) public properties */\n    tag_7:\n      tag_24\n      0x04\n      dup1\n      calldatasize\n      sub\n      dup2\n      add\n      swap1\n      tag_25\n      swap2\n      swap1\n      tag_21\n      jump\t// in\n    tag_25:\n      tag_26\n      jump\t// in\n    tag_24:\n      mload(0x40)\n      tag_27\n      swap2\n      swap1\n      tag_18\n      jump\t// in\n    tag_27:\n      mload(0x40)\n      dup1\n      swap2\n      sub\n      swap1\n      return\n        /* \"contracts/PropertyRegistry.sol\":733:1181  function transferOwnership(uint256 propertyId, address newOwner) public {... */\n    tag_11:\n        /* \"contracts/PropertyRegistry.sol\":855:865  msg.sender */\n      caller\n        /* \"contracts/PropertyRegistry.sol\":823:865  properties[propertyId].owner == msg.sender */\n      0xffffffffffffffffffffffffffffffffffffffff\n      and\n        /* \"contracts/PropertyRegistry.sol\":823:833  properties */\n      0x01\n        /* \"contracts/PropertyRegistry.sol\":823:845  properties[propertyId] */\n      0x00\n        /* \"contracts/PropertyRegistry.sol\":834:844  propertyId */\n      dup5\n        /* \"contracts/PropertyRegistry.sol\":823:845  properties[propertyId] */\n      dup2\n      mstore\n      0x20\n      add\n      swap1\n      dup2\n      mstore\n      0x20\n      add\n      0x00\n      keccak256\n        /* \"contracts/PropertyRegistry.sol\":823:851  properties[propertyId].owner */\n      0x00\n      add\n      0x00\n      swap1\n      sload\n      swap1\n      0x0100\n      exp\n      swap1\n      div\n      0xffffffffffffffffffffffffffffffffffffffff\n      and\n        /* \"contracts/PropertyRegistry.sol\":823:865  properties[propertyId].owner == msg.sender */\n      0xffffffffffffffffffffffffffffffffffffffff\n      and\n      eq\n        /* \"contracts/PropertyRegistry.sol\":815:909  require(properties[propertyId].owner == msg.sender, \"Caller is not the owner of the property\") */\n      tag_29\n      jumpi\n      mload(0x40)\n      0x08c379a000000000000000000000000000000000000000000000000000000000\n      dup2\n      mstore\n      0x04\n      add\n      tag_30\n      swap1\n      tag_31\n      jump\t// in\n    tag_30:\n      mload(0x40)\n      dup1\n      swap2\n      sub\n      swap1\n      revert\n    tag_29:\n        /* \"contracts/PropertyRegistry.sol\":939:949  msg.sender */\n      caller\n        /* \"contracts/PropertyRegistry.sol\":927:949  newOwner != msg.sender */\n      0xffffffffffffffffffffffffffffffffffffffff\n      and\n        /* \"contracts/PropertyRegistry.sol\":927:935  newOwner */\n      dup2\n        /* \"contracts/PropertyRegistry.sol\":927:949  newOwner != msg.sender */\n      0xffffffffffffffffffffffffffffffffffffffff\n      and\n      sub\n        /* \"contracts/PropertyRegistry.sol\":919:990  require(newOwner != msg.sender, \"Cannot transfer property to yourself\") */\n      tag_32\n      jumpi\n      mload(0x40)\n      0x08c379a000000000000000000000000000000000000000000000000000000000\n      dup2\n      mstore\n      0x04\n      add\n      tag_33\n      swap1\n      tag_34\n      jump\t// in\n    tag_33:\n      mload(0x40)\n      dup1\n      swap2\n      sub\n      swap1\n      revert\n    tag_32:\n        /* \"contracts/PropertyRegistry.sol\":1001:1022  address previousOwner */\n      0x00\n        /* \"contracts/PropertyRegistry.sol\":1025:1035  properties */\n      0x01\n        /* \"contracts/PropertyRegistry.sol\":1025:1047  properties[propertyId] */\n      0x00\n        /* \"contracts/PropertyRegistry.sol\":1036:1046  propertyId */\n      dup5\n        /* \"contracts/PropertyRegistry.sol\":1025:1047  properties[propertyId] */\n      dup2\n      mstore\n      0x20\n      add\n      swap1\n      dup2\n      mstore\n      0x20\n      add\n      0x00\n      keccak256\n        /* \"contracts/PropertyRegistry.sol\":1025:1053  properties[propertyId].owner */\n      0x00\n      add\n      0x00\n      swap1\n      sload\n      swap1\n      0x0100\n      exp\n      swap1\n      div\n      0xffffffffffffffffffffffffffffffffffffffff\n      and\n        /* \"contracts/PropertyRegistry.sol\":1001:1053  address previousOwner = properties[propertyId].owner */\n      swap1\n      pop\n        /* \"contracts/PropertyRegistry.sol\":1094:1102  newOwner */\n      dup2\n        /* \"contracts/PropertyRegistry.sol\":1063:1073  properties */\n      0x01\n        /* \"contracts/PropertyRegistry.sol\":1063:1085  properties[propertyId] */\n      0x00\n        /* \"contracts/PropertyRegistry.sol\":1074:1084  propertyId */\n      dup6\n        /* \"contracts/PropertyRegistry.sol\":1063:1085  properties[propertyId] */\n      dup2\n      mstore\n      0x20\n      add\n      swap1\n      dup2\n      mstore\n      0x20\n      add\n      0x00\n      keccak256\n        /* \"contracts/PropertyRegistry.sol\":1063:1091  properties[propertyId].owner */\n      0x00\n      add\n      0x00\n        /* \"contracts/PropertyRegistry.sol\":1063:1102  properties[propertyId].owner = newOwner */\n      0x0100\n      exp\n      dup2\n      sload\n      dup2\n      0xffffffffffffffffffffffffffffffffffffffff\n      mul\n      not\n      and\n      swap1\n      dup4\n      0xffffffffffffffffffffffffffffffffffffffff\n      and\n      mul\n      or\n      swap1\n      sstore\n      pop\n        /* \"contracts/PropertyRegistry.sol\":1165:1173  newOwner */\n      dup2\n        /* \"contracts/PropertyRegistry.sol\":1117:1174  OwnershipTransferred(propertyId, previousOwner, newOwner) */\n      0xffffffffffffffffffffffffffffffffffffffff\n      and\n        /* \"contracts/PropertyRegistry.sol\":1150:1163  previousOwner */\n      dup2\n        /* \"contracts/PropertyRegistry.sol\":1117:1174  OwnershipTransferred(propertyId, previousOwner, newOwner) */\n      0xffffffffffffffffffffffffffffffffffffffff\n      and\n        /* \"contracts/PropertyRegistry.sol\":1138:1148  propertyId */\n      dup5\n        /* \"contracts/PropertyRegistry.sol\":1117:1174  OwnershipTransferred(propertyId, previousOwner, newOwner) */\n      0x16b85f49bf01212961345d3016c9a531894accf62eb7680f2045d79185cc0ec0\n      mload(0x40)\n      mload(0x40)\n      dup1\n      swap2\n      sub\n      swap1\n      log4\n        /* \"contracts/PropertyRegistry.sol\":805:1181  {... */\n      pop\n        /* \"contracts/PropertyRegistry.sol\":733:1181  function transferOwnership(uint256 propertyId, address newOwner) public {... */\n      pop\n      pop\n      jump\t// out\n        /* \"contracts/PropertyRegistry.sol\":443:727  function registerProperty(uint256 propertyId, address newOwner) public onlyOwner {... */\n    tag_14:\n        /* \"contracts/Ownable.sol\":215:220  owner */\n      0x00\n      dup1\n      sload\n      swap1\n      0x0100\n      exp\n      swap1\n      div\n      0xffffffffffffffffffffffffffffffffffffffff\n      and\n        /* \"contracts/Ownable.sol\":201:220  msg.sender == owner */\n      0xffffffffffffffffffffffffffffffffffffffff\n      and\n        /* \"contracts/Ownable.sol\":201:211  msg.sender */\n      caller\n        /* \"contracts/Ownable.sol\":201:220  msg.sender == owner */\n      0xffffffffffffffffffffffffffffffffffffffff\n      and\n      eq\n        /* \"contracts/Ownable.sol\":193:258  require(msg.sender == owner, \"Only owner can call this function\") */\n      tag_36\n      jumpi\n      mload(0x40)\n      0x08c379a000000000000000000000000000000000000000000000000000000000\n      dup2\n      mstore\n      0x04\n      add\n      tag_37\n      swap1\n      tag_38\n      jump\t// in\n    tag_37:\n      mload(0x40)\n      dup1\n      swap2\n      sub\n      swap1\n      revert\n    tag_36:\n        /* \"contracts/PropertyRegistry.sol\":582:583  0 */\n      0x00\n        /* \"contracts/PropertyRegistry.sol\":542:584  properties[propertyId].owner == address(0) */\n      0xffffffffffffffffffffffffffffffffffffffff\n      and\n        /* \"contracts/PropertyRegistry.sol\":542:552  properties */\n      0x01\n        /* \"contracts/PropertyRegistry.sol\":542:564  properties[propertyId] */\n      0x00\n        /* \"contracts/PropertyRegistry.sol\":553:563  propertyId */\n      dup5\n        /* \"contracts/PropertyRegistry.sol\":542:564  properties[propertyId] */\n      dup2\n      mstore\n      0x20\n      add\n      swap1\n      dup2\n      mstore\n      0x20\n      add\n      0x00\n      keccak256\n        /* \"contracts/PropertyRegistry.sol\":542:570  properties[propertyId].owner */\n      0x00\n      add\n      0x00\n      swap1\n      sload\n      swap1\n      0x0100\n      exp\n      swap1\n      div\n      0xffffffffffffffffffffffffffffffffffffffff\n      and\n        /* \"contracts/PropertyRegistry.sol\":542:584  properties[propertyId].owner == address(0) */\n      0xffffffffffffffffffffffffffffffffffffffff\n      and\n      eq\n        /* \"contracts/PropertyRegistry.sol\":534:616  require(properties[propertyId].owner == address(0), \"Property already registered\") */\n      tag_40\n      jumpi\n      mload(0x40)\n      0x08c379a000000000000000000000000000000000000000000000000000000000\n      dup2\n      mstore\n      0x04\n      add\n      tag_41\n      swap1\n      tag_42\n      jump\t// in\n    tag_41:\n      mload(0x40)\n      dup1\n      swap2\n      sub\n      swap1\n      revert\n    tag_40:\n        /* \"contracts/PropertyRegistry.sol\":657:665  newOwner */\n      dup1\n        /* \"contracts/PropertyRegistry.sol\":626:636  properties */\n      0x01\n        /* \"contracts/PropertyRegistry.sol\":626:648  properties[propertyId] */\n      0x00\n        /* \"contracts/PropertyRegistry.sol\":637:647  propertyId */\n      dup5\n        /* \"contracts/PropertyRegistry.sol\":626:648  properties[propertyId] */\n      dup2\n      mstore\n      0x20\n      add\n      swap1\n      dup2\n      mstore\n      0x20\n      add\n      0x00\n      keccak256\n        /* \"contracts/PropertyRegistry.sol\":626:654  properties[propertyId].owner */\n      0x00\n      add\n      0x00\n        /* \"contracts/PropertyRegistry.sol\":626:665  properties[propertyId].owner = newOwner */\n      0x0100\n      exp\n      dup2\n      sload\n      dup2\n      0xffffffffffffffffffffffffffffffffffffffff\n      mul\n      not\n      and\n      swap1\n      dup4\n      0xffffffffffffffffffffffffffffffffffffffff\n      and\n      mul\n      or\n      swap1\n      sstore\n      pop\n        /* \"contracts/PropertyRegistry.sol\":711:719  newOwner */\n      dup1\n        /* \"contracts/PropertyRegistry.sol\":680:720  PropertyRegistered(propertyId, newOwner) */\n      0xffffffffffffffffffffffffffffffffffffffff\n      and\n        /* \"contracts/PropertyRegistry.sol\":699:709  propertyId */\n      dup3\n        /* \"contracts/PropertyRegistry.sol\":680:720  PropertyRegistered(propertyId, newOwner) */\n      0xf16e2a0ca5373d3b3c5e53640bf2953ea25184f229ba20d421b5fc6a635e3945\n      mload(0x40)\n      mload(0x40)\n      dup1\n      swap2\n      sub\n      swap1\n      log3\n        /* \"contracts/PropertyRegistry.sol\":443:727  function registerProperty(uint256 propertyId, address newOwner) public onlyOwner {... */\n      pop\n      pop\n      jump\t// out\n        /* \"contracts/Ownable.sol\":80:100  address public owner */\n    tag_16:\n      0x00\n      dup1\n      sload\n      swap1\n      0x0100\n      exp\n      swap1\n      div\n      0xffffffffffffffffffffffffffffffffffffffff\n      and\n      dup2\n      jump\t// out\n        /* \"contracts/PropertyRegistry.sol\":1187:1315  function getPropertyOwner(uint256 propertyId) public view returns (address) {... */\n    tag_22:\n        /* \"contracts/PropertyRegistry.sol\":1254:1261  address */\n      0x00\n        /* \"contracts/PropertyRegistry.sol\":1280:1290  properties */\n      0x01\n        /* \"contracts/PropertyRegistry.sol\":1280:1302  properties[propertyId] */\n      0x00\n        /* \"contracts/PropertyRegistry.sol\":1291:1301  propertyId */\n      dup4\n        /* \"contracts/PropertyRegistry.sol\":1280:1302  properties[propertyId] */\n      dup2\n      mstore\n      0x20\n      add\n      swap1\n      dup2\n      mstore\n      0x20\n      add\n      0x00\n      keccak256\n        /* \"contracts/PropertyRegistry.sol\":1280:1308  properties[propertyId].owner */\n      0x00\n      add\n      0x00\n      swap1\n      sload\n      swap1\n      0x0100\n      exp\n      swap1\n      div\n      0xffffffffffffffffffffffffffffffffffffffff\n      and\n        /* \"contracts/PropertyRegistry.sol\":1273:1308  return properties[propertyId].owner */\n      swap1\n      pop\n        /* \"contracts/PropertyRegistry.sol\":1187:1315  function getPropertyOwner(uint256 propertyId) public view returns (address) {... */\n      swap2\n      swap1\n      pop\n      jump\t// out\n        /* \"contracts/PropertyRegistry.sol\":184:237  mapping(uint256 => PropertyDetails) public properties */\n    tag_26:\n      mstore(0x20, 0x01)\n      dup1\n      0x00\n      mstore\n      keccak256(0x00, 0x40)\n      0x00\n      swap2\n      pop\n      swap1\n      pop\n      dup1\n      0x00\n      add\n      0x00\n      swap1\n      sload\n      swap1\n      0x0100\n      exp\n      swap1\n      div\n      0xffffffffffffffffffffffffffffffffffffffff\n      and\n      swap1\n      pop\n      dup2\n      jump\t// out\n        /* \"#utility.yul\":88:205   */\n    tag_45:\n        /* \"#utility.yul\":197:198   */\n      0x00\n        /* \"#utility.yul\":194:195   */\n      dup1\n        /* \"#utility.yul\":187:199   */\n      revert\n        /* \"#utility.yul\":334:411   */\n    tag_47:\n        /* \"#utility.yul\":371:378   */\n      0x00\n        /* \"#utility.yul\":400:405   */\n      dup2\n        /* \"#utility.yul\":389:405   */\n      swap1\n      pop\n        /* \"#utility.yul\":334:411   */\n      swap2\n      swap1\n      pop\n      jump\t// out\n        /* \"#utility.yul\":417:539   */\n    tag_48:\n        /* \"#utility.yul\":490:514   */\n      tag_70\n        /* \"#utility.yul\":508:513   */\n      dup2\n        /* \"#utility.yul\":490:514   */\n      tag_47\n      jump\t// in\n    tag_70:\n        /* \"#utility.yul\":483:488   */\n      dup2\n        /* \"#utility.yul\":480:515   */\n      eq\n        /* \"#utility.yul\":470:533   */\n      tag_71\n      jumpi\n        /* \"#utility.yul\":529:530   */\n      0x00\n        /* \"#utility.yul\":526:527   */\n      dup1\n        /* \"#utility.yul\":519:531   */\n      revert\n        /* \"#utility.yul\":470:533   */\n    tag_71:\n        /* \"#utility.yul\":417:539   */\n      pop\n      jump\t// out\n        /* \"#utility.yul\":545:684   */\n    tag_49:\n        /* \"#utility.yul\":591:596   */\n      0x00\n        /* \"#utility.yul\":629:635   */\n      dup2\n        /* \"#utility.yul\":616:636   */\n      calldataload\n        /* \"#utility.yul\":607:636   */\n      swap1\n      pop\n        /* \"#utility.yul\":645:678   */\n      tag_73\n        /* \"#utility.yul\":672:677   */\n      dup2\n        /* \"#utility.yul\":645:678   */\n      tag_48\n      jump\t// in\n    tag_73:\n        /* \"#utility.yul\":545:684   */\n      swap3\n      swap2\n      pop\n      pop\n      jump\t// out\n        /* \"#utility.yul\":690:816   */\n    tag_50:\n        /* \"#utility.yul\":727:734   */\n      0x00\n        /* \"#utility.yul\":767:809   */\n      0xffffffffffffffffffffffffffffffffffffffff\n        /* \"#utility.yul\":760:765   */\n      dup3\n        /* \"#utility.yul\":756:810   */\n      and\n        /* \"#utility.yul\":745:810   */\n      swap1\n      pop\n        /* \"#utility.yul\":690:816   */\n      swap2\n      swap1\n      pop\n      jump\t// out\n        /* \"#utility.yul\":822:918   */\n    tag_51:\n        /* \"#utility.yul\":859:866   */\n      0x00\n        /* \"#utility.yul\":888:912   */\n      tag_76\n        /* \"#utility.yul\":906:911   */\n      dup3\n        /* \"#utility.yul\":888:912   */\n      tag_50\n      jump\t// in\n    tag_76:\n        /* \"#utility.yul\":877:912   */\n      swap1\n      pop\n        /* \"#utility.yul\":822:918   */\n      swap2\n      swap1\n      pop\n      jump\t// out\n        /* \"#utility.yul\":924:1046   */\n    tag_52:\n        /* \"#utility.yul\":997:1021   */\n      tag_78\n        /* \"#utility.yul\":1015:1020   */\n      dup2\n        /* \"#utility.yul\":997:1021   */\n      tag_51\n      jump\t// in\n    tag_78:\n        /* \"#utility.yul\":990:995   */\n      dup2\n        /* \"#utility.yul\":987:1022   */\n      eq\n        /* \"#utility.yul\":977:1040   */\n      tag_79\n      jumpi\n        /* \"#utility.yul\":1036:1037   */\n      0x00\n        /* \"#utility.yul\":1033:1034   */\n      dup1\n        /* \"#utility.yul\":1026:1038   */\n      revert\n        /* \"#utility.yul\":977:1040   */\n    tag_79:\n        /* \"#utility.yul\":924:1046   */\n      pop\n      jump\t// out\n        /* \"#utility.yul\":1052:1191   */\n    tag_53:\n        /* \"#utility.yul\":1098:1103   */\n      0x00\n        /* \"#utility.yul\":1136:1142   */\n      dup2\n        /* \"#utility.yul\":1123:1143   */\n      calldataload\n        /* \"#utility.yul\":1114:1143   */\n      swap1\n      pop\n        /* \"#utility.yul\":1152:1185   */\n      tag_81\n        /* \"#utility.yul\":1179:1184   */\n      dup2\n        /* \"#utility.yul\":1152:1185   */\n      tag_52\n      jump\t// in\n    tag_81:\n        /* \"#utility.yul\":1052:1191   */\n      swap3\n      swap2\n      pop\n      pop\n      jump\t// out\n        /* \"#utility.yul\":1197:1671   */\n    tag_10:\n        /* \"#utility.yul\":1265:1271   */\n      0x00\n        /* \"#utility.yul\":1273:1279   */\n      dup1\n        /* \"#utility.yul\":1322:1324   */\n      0x40\n        /* \"#utility.yul\":1310:1319   */\n      dup4\n        /* \"#utility.yul\":1301:1308   */\n      dup6\n        /* \"#utility.yul\":1297:1320   */\n      sub\n        /* \"#utility.yul\":1293:1325   */\n      slt\n        /* \"#utility.yul\":1290:1409   */\n      iszero\n      tag_83\n      jumpi\n        /* \"#utility.yul\":1328:1407   */\n      tag_84\n      tag_45\n      jump\t// in\n    tag_84:\n        /* \"#utility.yul\":1290:1409   */\n    tag_83:\n        /* \"#utility.yul\":1448:1449   */\n      0x00\n        /* \"#utility.yul\":1473:1526   */\n      tag_85\n        /* \"#utility.yul\":1518:1525   */\n      dup6\n        /* \"#utility.yul\":1509:1515   */\n      dup3\n        /* \"#utility.yul\":1498:1507   */\n      dup7\n        /* \"#utility.yul\":1494:1516   */\n      add\n        /* \"#utility.yul\":1473:1526   */\n      tag_49\n      jump\t// in\n    tag_85:\n        /* \"#utility.yul\":1463:1526   */\n      swap3\n      pop\n        /* \"#utility.yul\":1419:1536   */\n      pop\n        /* \"#utility.yul\":1575:1577   */\n      0x20\n        /* \"#utility.yul\":1601:1654   */\n      tag_86\n        /* \"#utility.yul\":1646:1653   */\n      dup6\n        /* \"#utility.yul\":1637:1643   */\n      dup3\n        /* \"#utility.yul\":1626:1635   */\n      dup7\n        /* \"#utility.yul\":1622:1644   */\n      add\n        /* \"#utility.yul\":1601:1654   */\n      tag_53\n      jump\t// in\n    tag_86:\n        /* \"#utility.yul\":1591:1654   */\n      swap2\n      pop\n        /* \"#utility.yul\":1546:1664   */\n      pop\n        /* \"#utility.yul\":1197:1671   */\n      swap3\n      pop\n      swap3\n      swap1\n      pop\n      jump\t// out\n        /* \"#utility.yul\":1677:1795   */\n    tag_54:\n        /* \"#utility.yul\":1764:1788   */\n      tag_88\n        /* \"#utility.yul\":1782:1787   */\n      dup2\n        /* \"#utility.yul\":1764:1788   */\n      tag_51\n      jump\t// in\n    tag_88:\n        /* \"#utility.yul\":1759:1762   */\n      dup3\n        /* \"#utility.yul\":1752:1789   */\n      mstore\n        /* \"#utility.yul\":1677:1795   */\n      pop\n      pop\n      jump\t// out\n        /* \"#utility.yul\":1801:2023   */\n    tag_18:\n        /* \"#utility.yul\":1894:1898   */\n      0x00\n        /* \"#utility.yul\":1932:1934   */\n      0x20\n        /* \"#utility.yul\":1921:1930   */\n      dup3\n        /* \"#utility.yul\":1917:1935   */\n      add\n        /* \"#utility.yul\":1909:1935   */\n      swap1\n      pop\n        /* \"#utility.yul\":1945:2016   */\n      tag_90\n        /* \"#utility.yul\":2013:2014   */\n      0x00\n        /* \"#utility.yul\":2002:2011   */\n      dup4\n        /* \"#utility.yul\":1998:2015   */\n      add\n        /* \"#utility.yul\":1989:1995   */\n      dup5\n        /* \"#utility.yul\":1945:2016   */\n      tag_54\n      jump\t// in\n    tag_90:\n        /* \"#utility.yul\":1801:2023   */\n      swap3\n      swap2\n      pop\n      pop\n      jump\t// out\n        /* \"#utility.yul\":2029:2358   */\n    tag_21:\n        /* \"#utility.yul\":2088:2094   */\n      0x00\n        /* \"#utility.yul\":2137:2139   */\n      0x20\n        /* \"#utility.yul\":2125:2134   */\n      dup3\n        /* \"#utility.yul\":2116:2123   */\n      dup5\n        /* \"#utility.yul\":2112:2135   */\n      sub\n        /* \"#utility.yul\":2108:2140   */\n      slt\n        /* \"#utility.yul\":2105:2224   */\n      iszero\n      tag_92\n      jumpi\n        /* \"#utility.yul\":2143:2222   */\n      tag_93\n      tag_45\n      jump\t// in\n    tag_93:\n        /* \"#utility.yul\":2105:2224   */\n    tag_92:\n        /* \"#utility.yul\":2263:2264   */\n      0x00\n        /* \"#utility.yul\":2288:2341   */\n      tag_94\n        /* \"#utility.yul\":2333:2340   */\n      dup5\n        /* \"#utility.yul\":2324:2330   */\n      dup3\n        /* \"#utility.yul\":2313:2322   */\n      dup6\n        /* \"#utility.yul\":2309:2331   */\n      add\n        /* \"#utility.yul\":2288:2341   */\n      tag_49\n      jump\t// in\n    tag_94:\n        /* \"#utility.yul\":2278:2341   */\n      swap2\n      pop\n        /* \"#utility.yul\":2234:2351   */\n      pop\n        /* \"#utility.yul\":2029:2358   */\n      swap3\n      swap2\n      pop\n      pop\n      jump\t// out\n        /* \"#utility.yul\":2364:2533   */\n    tag_55:\n        /* \"#utility.yul\":2448:2459   */\n      0x00\n        /* \"#utility.yul\":2482:2488   */\n      dup3\n        /* \"#utility.yul\":2477:2480   */\n      dup3\n        /* \"#utility.yul\":2470:2489   */\n      mstore\n        /* \"#utility.yul\":2522:2526   */\n      0x20\n        /* \"#utility.yul\":2517:2520   */\n      dup3\n        /* \"#utility.yul\":2513:2527   */\n      add\n        /* \"#utility.yul\":2498:2527   */\n      swap1\n      pop\n        /* \"#utility.yul\":2364:2533   */\n      swap3\n      swap2\n      pop\n      pop\n      jump\t// out\n        /* \"#utility.yul\":2539:2765   */\n    tag_56:\n        /* \"#utility.yul\":2679:2713   */\n      0x43616c6c6572206973206e6f7420746865206f776e6572206f66207468652070\n        /* \"#utility.yul\":2675:2676   */\n      0x00\n        /* \"#utility.yul\":2667:2673   */\n      dup3\n        /* \"#utility.yul\":2663:2677   */\n      add\n        /* \"#utility.yul\":2656:2714   */\n      mstore\n        /* \"#utility.yul\":2748:2757   */\n      0x726f706572747900000000000000000000000000000000000000000000000000\n        /* \"#utility.yul\":2743:2745   */\n      0x20\n        /* \"#utility.yul\":2735:2741   */\n      dup3\n        /* \"#utility.yul\":2731:2746   */\n      add\n        /* \"#utility.yul\":2724:2758   */\n      mstore\n        /* \"#utility.yul\":2539:2765   */\n      pop\n      jump\t// out\n        /* \"#utility.yul\":2771:3137   */\n    tag_57:\n        /* \"#utility.yul\":2913:2916   */\n      0x00\n        /* \"#utility.yul\":2934:3001   */\n      tag_98\n        /* \"#utility.yul\":2998:3000   */\n      0x27\n        /* \"#utility.yul\":2993:2996   */\n      dup4\n        /* \"#utility.yul\":2934:3001   */\n      tag_55\n      jump\t// in\n    tag_98:\n        /* \"#utility.yul\":2927:3001   */\n      swap2\n      pop\n        /* \"#utility.yul\":3010:3103   */\n      tag_99\n        /* \"#utility.yul\":3099:3102   */\n      dup3\n        /* \"#utility.yul\":3010:3103   */\n      tag_56\n      jump\t// in\n    tag_99:\n        /* \"#utility.yul\":3128:3130   */\n      0x40\n        /* \"#utility.yul\":3123:3126   */\n      dup3\n        /* \"#utility.yul\":3119:3131   */\n      add\n        /* \"#utility.yul\":3112:3131   */\n      swap1\n      pop\n        /* \"#utility.yul\":2771:3137   */\n      swap2\n      swap1\n      pop\n      jump\t// out\n        /* \"#utility.yul\":3143:3562   */\n    tag_31:\n        /* \"#utility.yul\":3309:3313   */\n      0x00\n        /* \"#utility.yul\":3347:3349   */\n      0x20\n        /* \"#utility.yul\":3336:3345   */\n      dup3\n        /* \"#utility.yul\":3332:3350   */\n      add\n        /* \"#utility.yul\":3324:3350   */\n      swap1\n      pop\n        /* \"#utility.yul\":3396:3405   */\n      dup2\n        /* \"#utility.yul\":3390:3394   */\n      dup2\n        /* \"#utility.yul\":3386:3406   */\n      sub\n        /* \"#utility.yul\":3382:3383   */\n      0x00\n        /* \"#utility.yul\":3371:3380   */\n      dup4\n        /* \"#utility.yul\":3367:3384   */\n      add\n        /* \"#utility.yul\":3360:3407   */\n      mstore\n        /* \"#utility.yul\":3424:3555   */\n      tag_101\n        /* \"#utility.yul\":3550:3554   */\n      dup2\n        /* \"#utility.yul\":3424:3555   */\n      tag_57\n      jump\t// in\n    tag_101:\n        /* \"#utility.yul\":3416:3555   */\n      swap1\n      pop\n        /* \"#utility.yul\":3143:3562   */\n      swap2\n      swap1\n      pop\n      jump\t// out\n        /* \"#utility.yul\":3568:3791   */\n    tag_58:\n        /* \"#utility.yul\":3708:3742   */\n      0x43616e6e6f74207472616e736665722070726f706572747920746f20796f7572\n        /* \"#utility.yul\":3704:3705   */\n      0x00\n        /* \"#utility.yul\":3696:3702   */\n      dup3\n        /* \"#utility.yul\":3692:3706   */\n      add\n        /* \"#utility.yul\":3685:3743   */\n      mstore\n        /* \"#utility.yul\":3777:3783   */\n      0x73656c6600000000000000000000000000000000000000000000000000000000\n        /* \"#utility.yul\":3772:3774   */\n      0x20\n        /* \"#utility.yul\":3764:3770   */\n      dup3\n        /* \"#utility.yul\":3760:3775   */\n      add\n        /* \"#utility.yul\":3753:3784   */\n      mstore\n        /* \"#utility.yul\":3568:3791   */\n      pop\n      jump\t// out\n        /* \"#utility.yul\":3797:4163   */\n    tag_59:\n        /* \"#utility.yul\":3939:3942   */\n      0x00\n        /* \"#utility.yul\":3960:4027   */\n      tag_104\n        /* \"#utility.yul\":4024:4026   */\n      0x24\n        /* \"#utility.yul\":4019:4022   */\n      dup4\n        /* \"#utility.yul\":3960:4027   */\n      tag_55\n      jump\t// in\n    tag_104:\n        /* \"#utility.yul\":3953:4027   */\n      swap2\n      pop\n        /* \"#utility.yul\":4036:4129   */\n      tag_105\n        /* \"#utility.yul\":4125:4128   */\n      dup3\n        /* \"#utility.yul\":4036:4129   */\n      tag_58\n      jump\t// in\n    tag_105:\n        /* \"#utility.yul\":4154:4156   */\n      0x40\n        /* \"#utility.yul\":4149:4152   */\n      dup3\n        /* \"#utility.yul\":4145:4157   */\n      add\n        /* \"#utility.yul\":4138:4157   */\n      swap1\n      pop\n        /* \"#utility.yul\":3797:4163   */\n      swap2\n      swap1\n      pop\n      jump\t// out\n        /* \"#utility.yul\":4169:4588   */\n    tag_34:\n        /* \"#utility.yul\":4335:4339   */\n      0x00\n        /* \"#utility.yul\":4373:4375   */\n      0x20\n        /* \"#utility.yul\":4362:4371   */\n      dup3\n        /* \"#utility.yul\":4358:4376   */\n      add\n        /* \"#utility.yul\":4350:4376   */\n      swap1\n      pop\n        /* \"#utility.yul\":4422:4431   */\n      dup2\n        /* \"#utility.yul\":4416:4420   */\n      dup2\n        /* \"#utility.yul\":4412:4432   */\n      sub\n        /* \"#utility.yul\":4408:4409   */\n      0x00\n        /* \"#utility.yul\":4397:4406   */\n      dup4\n        /* \"#utility.yul\":4393:4410   */\n      add\n        /* \"#utility.yul\":4386:4433   */\n      mstore\n        /* \"#utility.yul\":4450:4581   */\n      tag_107\n        /* \"#utility.yul\":4576:4580   */\n      dup2\n        /* \"#utility.yul\":4450:4581   */\n      tag_59\n      jump\t// in\n    tag_107:\n        /* \"#utility.yul\":4442:4581   */\n      swap1\n      pop\n        /* \"#utility.yul\":4169:4588   */\n      swap2\n      swap1\n      pop\n      jump\t// out\n        /* \"#utility.yul\":4594:4814   */\n    tag_60:\n        /* \"#utility.yul\":4734:4768   */\n      0x4f6e6c79206f776e65722063616e2063616c6c20746869732066756e6374696f\n        /* \"#utility.yul\":4730:4731   */\n      0x00\n        /* \"#utility.yul\":4722:4728   */\n      dup3\n        /* \"#utility.yul\":4718:4732   */\n      add\n        /* \"#utility.yul\":4711:4769   */\n      mstore\n        /* \"#utility.yul\":4803:4806   */\n      0x6e00000000000000000000000000000000000000000000000000000000000000\n        /* \"#utility.yul\":4798:4800   */\n      0x20\n        /* \"#utility.yul\":4790:4796   */\n      dup3\n        /* \"#utility.yul\":4786:4801   */\n      add\n        /* \"#utility.yul\":4779:4807   */\n      mstore\n        /* \"#utility.yul\":4594:4814   */\n      pop\n      jump\t// out\n        /* \"#utility.yul\":4820:5186   */\n    tag_61:\n        /* \"#utility.yul\":4962:4965   */\n      0x00\n        /* \"#utility.yul\":4983:5050   */\n      tag_110\n        /* \"#utility.yul\":5047:5049   */\n      0x21\n        /* \"#utility.yul\":5042:5045   */\n      dup4\n        /* \"#utility.yul\":4983:5050   */\n      tag_55\n      jump\t// in\n    tag_110:\n        /* \"#utility.yul\":4976:5050   */\n      swap2\n      pop\n        /* \"#utility.yul\":5059:5152   */\n      tag_111\n        /* \"#utility.yul\":5148:5151   */\n      dup3\n        /* \"#utility.yul\":5059:5152   */\n      tag_60\n      jump\t// in\n    tag_111:\n        /* \"#utility.yul\":5177:5179   */\n      0x40\n        /* \"#utility.yul\":5172:5175   */\n      dup3\n        /* \"#utility.yul\":5168:5180   */\n      add\n        /* \"#utility.yul\":5161:5180   */\n      swap1\n      pop\n        /* \"#utility.yul\":4820:5186   */\n      swap2\n      swap1\n      pop\n      jump\t// out\n        /* \"#utility.yul\":5192:5611   */\n    tag_38:\n        /* \"#utility.yul\":5358:5362   */\n      0x00\n        /* \"#utility.yul\":5396:5398   */\n      0x20\n        /* \"#utility.yul\":5385:5394   */\n      dup3\n        /* \"#utility.yul\":5381:5399   */\n      add\n        /* \"#utility.yul\":5373:5399   */\n      swap1\n      pop\n        /* \"#utility.yul\":5445:5454   */\n      dup2\n        /* \"#utility.yul\":5439:5443   */\n      dup2\n        /* \"#utility.yul\":5435:5455   */\n      sub\n        /* \"#utility.yul\":5431:5432   */\n      0x00\n        /* \"#utility.yul\":5420:5429   */\n      dup4\n        /* \"#utility.yul\":5416:5433   */\n      add\n        /* \"#utility.yul\":5409:5456   */\n      mstore\n        /* \"#utility.yul\":5473:5604   */\n      tag_113\n        /* \"#utility.yul\":5599:5603   */\n      dup2\n        /* \"#utility.yul\":5473:5604   */\n      tag_61\n      jump\t// in\n    tag_113:\n        /* \"#utility.yul\":5465:5604   */\n      swap1\n      pop\n        /* \"#utility.yul\":5192:5611   */\n      swap2\n      swap1\n      pop\n      jump\t// out\n        /* \"#utility.yul\":5617:5794   */\n    tag_62:\n        /* \"#utility.yul\":5757:5786   */\n      0x50726f706572747920616c726561647920726567697374657265640000000000\n        /* \"#utility.yul\":5753:5754   */\n      0x00\n        /* \"#utility.yul\":5745:5751   */\n      dup3\n        /* \"#utility.yul\":5741:5755   */\n      add\n        /* \"#utility.yul\":5734:5787   */\n      mstore\n        /* \"#utility.yul\":5617:5794   */\n      pop\n      jump\t// out\n        /* \"#utility.yul\":5800:6166   */\n    tag_63:\n        /* \"#utility.yul\":5942:5945   */\n      0x00\n        /* \"#utility.yul\":5963:6030   */\n      tag_116\n        /* \"#utility.yul\":6027:6029   */\n      0x1b\n        /* \"#utility.yul\":6022:6025   */\n      dup4\n        /* \"#utility.yul\":5963:6030   */\n      tag_55\n      jump\t// in\n    tag_116:\n        /* \"#utility.yul\":5956:6030   */\n      swap2\n      pop\n        /* \"#utility.yul\":6039:6132   */\n      tag_117\n        /* \"#utility.yul\":6128:6131   */\n      dup3\n        /* \"#utility.yul\":6039:6132   */\n      tag_62\n      jump\t// in\n    tag_117:\n        /* \"#utility.yul\":6157:6159   */\n      0x20\n        /* \"#utility.yul\":6152:6155   */\n      dup3\n        /* \"#utility.yul\":6148:6160   */\n      add\n        /* \"#utility.yul\":6141:6160   */\n      swap1\n      pop\n        /* \"#utility.yul\":5800:6166   */\n      swap2\n      swap1\n      pop\n      jump\t// out\n        /* \"#utility.yul\":6172:6591   */\n    tag_42:\n        /* \"#utility.yul\":6338:6342   */\n      0x00\n        /* \"#utility.yul\":6376:6378   */\n      0x20\n        /* \"#utility.yul\":6365:6374   */\n      dup3\n        /* \"#utility.yul\":6361:6379   */\n      add\n        /* \"#utility.yul\":6353:6379   */\n      swap1\n      pop\n        /* \"#utility.yul\":6425:6434   */\n      dup2\n        /* \"#utility.yul\":6419:6423   */\n      dup2\n        /* \"#utility.yul\":6415:6435   */\n      sub\n        /* \"#utility.yul\":6411:6412   */\n      0x00\n        /* \"#utility.yul\":6400:6409   */\n      dup4\n        /* \"#utility.yul\":6396:6413   */\n      add\n        /* \"#utility.yul\":6389:6436   */\n      mstore\n        /* \"#utility.yul\":6453:6584   */\n      tag_119\n        /* \"#utility.yul\":6579:6583   */\n      dup2\n        /* \"#utility.yul\":6453:6584   */\n      tag_63\n      jump\t// in\n    tag_119:\n        /* \"#utility.yul\":6445:6584   */\n      swap1\n      pop\n        /* \"#utility.yul\":6172:6591   */\n      swap2\n      swap1\n      pop\n      jump\t// out\n\n    auxdata: 0xa2646970667358221220811acd6c48d6a953211d9ce4b17cf178845ca370ca031a671cb12b94b1707dd564736f6c63430008160033\n}\n",
				"bytecode": {
					"linkReferences": {},
					"object": "608060405234801561000f575f80fd5b50335f806101000a81548173ffffffffffffffffffffffffffffffffffffffff021916908373ffffffffffffffffffffffffffffffffffffffff1602179055506108db8061005c5f395ff3fe608060405234801561000f575f80fd5b5060043610610055575f3560e01c806329507f731461005957806387b7a715146100755780638da5cb5b14610091578063e34fc531146100af578063f7b10808146100df575b5f80fd5b610073600480360381019061006e91906105f2565b61010f565b005b61008f600480360381019061008a91906105f2565b610304565b005b6100996104ca565b6040516100a6919061063f565b60405180910390f35b6100c960048036038101906100c49190610658565b6104ed565b6040516100d6919061063f565b60405180910390f35b6100f960048036038101906100f49190610658565b610528565b604051610106919061063f565b60405180910390f35b3373ffffffffffffffffffffffffffffffffffffffff1660015f8481526020019081526020015f205f015f9054906101000a900473ffffffffffffffffffffffffffffffffffffffff1673ffffffffffffffffffffffffffffffffffffffff16146101af576040517f08c379a00000000000000000000000000000000000000000000000000000000081526004016101a690610703565b60405180910390fd5b3373ffffffffffffffffffffffffffffffffffffffff168173ffffffffffffffffffffffffffffffffffffffff160361021d576040517f08c379a000000000000000000000000000000000000000000000000000000000815260040161021490610791565b60405180910390fd5b5f60015f8481526020019081526020015f205f015f9054906101000a900473ffffffffffffffffffffffffffffffffffffffff1690508160015f8581526020019081526020015f205f015f6101000a81548173ffffffffffffffffffffffffffffffffffffffff021916908373ffffffffffffffffffffffffffffffffffffffff1602179055508173ffffffffffffffffffffffffffffffffffffffff168173ffffffffffffffffffffffffffffffffffffffff16847f16b85f49bf01212961345d3016c9a531894accf62eb7680f2045d79185cc0ec060405160405180910390a4505050565b5f8054906101000a900473ffffffffffffffffffffffffffffffffffffffff1673ffffffffffffffffffffffffffffffffffffffff163373ffffffffffffffffffffffffffffffffffffffff1614610391576040517f08c379a00000000000000000000000000000000000000000000000000000000081526004016103889061081f565b60405180910390fd5b5f73ffffffffffffffffffffffffffffffffffffffff1660015f8481526020019081526020015f205f015f9054906101000a900473ffffffffffffffffffffffffffffffffffffffff1673ffffffffffffffffffffffffffffffffffffffff1614610431576040517f08c379a000000000000000000000000000000000000000000000000000000000815260040161042890610887565b60405180910390fd5b8060015f8481526020019081526020015f205f015f6101000a81548173ffffffffffffffffffffffffffffffffffffffff021916908373ffffffffffffffffffffffffffffffffffffffff1602179055508073ffffffffffffffffffffffffffffffffffffffff16827ff16e2a0ca5373d3b3c5e53640bf2953ea25184f229ba20d421b5fc6a635e394560405160405180910390a35050565b5f8054906101000a900473ffffffffffffffffffffffffffffffffffffffff1681565b5f60015f8381526020019081526020015f205f015f9054906101000a900473ffffffffffffffffffffffffffffffffffffffff169050919050565b6001602052805f5260405f205f91509050805f015f9054906101000a900473ffffffffffffffffffffffffffffffffffffffff16905081565b5f80fd5b5f819050919050565b61057781610565565b8114610581575f80fd5b50565b5f813590506105928161056e565b92915050565b5f73ffffffffffffffffffffffffffffffffffffffff82169050919050565b5f6105c182610598565b9050919050565b6105d1816105b7565b81146105db575f80fd5b50565b5f813590506105ec816105c8565b92915050565b5f806040838503121561060857610607610561565b5b5f61061585828601610584565b9250506020610626858286016105de565b9150509250929050565b610639816105b7565b82525050565b5f6020820190506106525f830184610630565b92915050565b5f6020828403121561066d5761066c610561565b5b5f61067a84828501610584565b91505092915050565b5f82825260208201905092915050565b7f43616c6c6572206973206e6f7420746865206f776e6572206f662074686520705f8201527f726f706572747900000000000000000000000000000000000000000000000000602082015250565b5f6106ed602783610683565b91506106f882610693565b604082019050919050565b5f6020820190508181035f83015261071a816106e1565b9050919050565b7f43616e6e6f74207472616e736665722070726f706572747920746f20796f75725f8201527f73656c6600000000000000000000000000000000000000000000000000000000602082015250565b5f61077b602483610683565b915061078682610721565b604082019050919050565b5f6020820190508181035f8301526107a88161076f565b9050919050565b7f4f6e6c79206f776e65722063616e2063616c6c20746869732066756e6374696f5f8201527f6e00000000000000000000000000000000000000000000000000000000000000602082015250565b5f610809602183610683565b9150610814826107af565b604082019050919050565b5f6020820190508181035f830152610836816107fd565b9050919050565b7f50726f706572747920616c7265616479207265676973746572656400000000005f82015250565b5f610871601b83610683565b915061087c8261083d565b602082019050919050565b5f6020820190508181035f83015261089e81610865565b905091905056fea2646970667358221220811acd6c48d6a953211d9ce4b17cf178845ca370ca031a671cb12b94b1707dd564736f6c63430008160033",
					"opcodes": "PUSH1 0x80 PUSH1 0x40 MSTORE CALLVALUE DUP1 ISZERO PUSH2 0xF JUMPI PUSH0 DUP1 REVERT JUMPDEST POP CALLER PUSH0 DUP1 PUSH2 0x100 EXP DUP2 SLOAD DUP2 PUSH20 0xFFFFFFFFFFFFFFFFFFFFFFFFFFFFFFFFFFFFFFFF MUL NOT AND SWAP1 DUP4 PUSH20 0xFFFFFFFFFFFFFFFFFFFFFFFFFFFFFFFFFFFFFFFF AND MUL OR SWAP1 SSTORE POP PUSH2 0x8DB DUP1 PUSH2 0x5C PUSH0 CODECOPY PUSH0 RETURN INVALID PUSH1 0x80 PUSH1 0x40 MSTORE CALLVALUE DUP1 ISZERO PUSH2 0xF JUMPI PUSH0 DUP1 REVERT JUMPDEST POP PUSH1 0x4 CALLDATASIZE LT PUSH2 0x55 JUMPI PUSH0 CALLDATALOAD PUSH1 0xE0 SHR DUP1 PUSH4 0x29507F73 EQ PUSH2 0x59 JUMPI DUP1 PUSH4 0x87B7A715 EQ PUSH2 0x75 JUMPI DUP1 PUSH4 0x8DA5CB5B EQ PUSH2 0x91 JUMPI DUP1 PUSH4 0xE34FC531 EQ PUSH2 0xAF JUMPI DUP1 PUSH4 0xF7B10808 EQ PUSH2 0xDF JUMPI JUMPDEST PUSH0 DUP1 REVERT JUMPDEST PUSH2 0x73 PUSH1 0x4 DUP1 CALLDATASIZE SUB DUP2 ADD SWAP1 PUSH2 0x6E SWAP2 SWAP1 PUSH2 0x5F2 JUMP JUMPDEST PUSH2 0x10F JUMP JUMPDEST STOP JUMPDEST PUSH2 0x8F PUSH1 0x4 DUP1 CALLDATASIZE SUB DUP2 ADD SWAP1 PUSH2 0x8A SWAP2 SWAP1 PUSH2 0x5F2 JUMP JUMPDEST PUSH2 0x304 JUMP JUMPDEST STOP JUMPDEST PUSH2 0x99 PUSH2 0x4CA JUMP JUMPDEST PUSH1 0x40 MLOAD PUSH2 0xA6 SWAP2 SWAP1 PUSH2 0x63F JUMP JUMPDEST PUSH1 0x40 MLOAD DUP1 SWAP2 SUB SWAP1 RETURN JUMPDEST PUSH2 0xC9 PUSH1 0x4 DUP1 CALLDATASIZE SUB DUP2 ADD SWAP1 PUSH2 0xC4 SWAP2 SWAP1 PUSH2 0x658 JUMP JUMPDEST PUSH2 0x4ED JUMP JUMPDEST PUSH1 0x40 MLOAD PUSH2 0xD6 SWAP2 SWAP1 PUSH2 0x63F JUMP JUMPDEST PUSH1 0x40 MLOAD DUP1 SWAP2 SUB SWAP1 RETURN JUMPDEST PUSH2 0xF9 PUSH1 0x4 DUP1 CALLDATASIZE SUB DUP2 ADD SWAP1 PUSH2 0xF4 SWAP2 SWAP1 PUSH2 0x658 JUMP JUMPDEST PUSH2 0x528 JUMP JUMPDEST PUSH1 0x40 MLOAD PUSH2 0x106 SWAP2 SWAP1 PUSH2 0x63F JUMP JUMPDEST PUSH1 0x40 MLOAD DUP1 SWAP2 SUB SWAP1 RETURN JUMPDEST CALLER PUSH20 0xFFFFFFFFFFFFFFFFFFFFFFFFFFFFFFFFFFFFFFFF AND PUSH1 0x1 PUSH0 DUP5 DUP2 MSTORE PUSH1 0x20 ADD SWAP1 DUP2 MSTORE PUSH1 0x20 ADD PUSH0 KECCAK256 PUSH0 ADD PUSH0 SWAP1 SLOAD SWAP1 PUSH2 0x100 EXP SWAP1 DIV PUSH20 0xFFFFFFFFFFFFFFFFFFFFFFFFFFFFFFFFFFFFFFFF AND PUSH20 0xFFFFFFFFFFFFFFFFFFFFFFFFFFFFFFFFFFFFFFFF AND EQ PUSH2 0x1AF JUMPI PUSH1 0x40 MLOAD PUSH32 0x8C379A000000000000000000000000000000000000000000000000000000000 DUP2 MSTORE PUSH1 0x4 ADD PUSH2 0x1A6 SWAP1 PUSH2 0x703 JUMP JUMPDEST PUSH1 0x40 MLOAD DUP1 SWAP2 SUB SWAP1 REVERT JUMPDEST CALLER PUSH20 0xFFFFFFFFFFFFFFFFFFFFFFFFFFFFFFFFFFFFFFFF AND DUP2 PUSH20 0xFFFFFFFFFFFFFFFFFFFFFFFFFFFFFFFFFFFFFFFF AND SUB PUSH2 0x21D JUMPI PUSH1 0x40 MLOAD PUSH32 0x8C379A000000000000000000000000000000000000000000000000000000000 DUP2 MSTORE PUSH1 0x4 ADD PUSH2 0x214 SWAP1 PUSH2 0x791 JUMP JUMPDEST PUSH1 0x40 MLOAD DUP1 SWAP2 SUB SWAP1 REVERT JUMPDEST PUSH0 PUSH1 0x1 PUSH0 DUP5 DUP2 MSTORE PUSH1 0x20 ADD SWAP1 DUP2 MSTORE PUSH1 0x20 ADD PUSH0 KECCAK256 PUSH0 ADD PUSH0 SWAP1 SLOAD SWAP1 PUSH2 0x100 EXP SWAP1 DIV PUSH20 0xFFFFFFFFFFFFFFFFFFFFFFFFFFFFFFFFFFFFFFFF AND SWAP1 POP DUP2 PUSH1 0x1 PUSH0 DUP6 DUP2 MSTORE PUSH1 0x20 ADD SWAP1 DUP2 MSTORE PUSH1 0x20 ADD PUSH0 KECCAK256 PUSH0 ADD PUSH0 PUSH2 0x100 EXP DUP2 SLOAD DUP2 PUSH20 0xFFFFFFFFFFFFFFFFFFFFFFFFFFFFFFFFFFFFFFFF MUL NOT AND SWAP1 DUP4 PUSH20 0xFFFFFFFFFFFFFFFFFFFFFFFFFFFFFFFFFFFFFFFF AND MUL OR SWAP1 SSTORE POP DUP2 PUSH20 0xFFFFFFFFFFFFFFFFFFFFFFFFFFFFFFFFFFFFFFFF AND DUP2 PUSH20 0xFFFFFFFFFFFFFFFFFFFFFFFFFFFFFFFFFFFFFFFF AND DUP5 PUSH32 0x16B85F49BF01212961345D3016C9A531894ACCF62EB7680F2045D79185CC0EC0 PUSH1 0x40 MLOAD PUSH1 0x40 MLOAD DUP1 SWAP2 SUB SWAP1 LOG4 POP POP POP JUMP JUMPDEST PUSH0 DUP1 SLOAD SWAP1 PUSH2 0x100 EXP SWAP1 DIV PUSH20 0xFFFFFFFFFFFFFFFFFFFFFFFFFFFFFFFFFFFFFFFF AND PUSH20 0xFFFFFFFFFFFFFFFFFFFFFFFFFFFFFFFFFFFFFFFF AND CALLER PUSH20 0xFFFFFFFFFFFFFFFFFFFFFFFFFFFFFFFFFFFFFFFF AND EQ PUSH2 0x391 JUMPI PUSH1 0x40 MLOAD PUSH32 0x8C379A000000000000000000000000000000000000000000000000000000000 DUP2 MSTORE PUSH1 0x4 ADD PUSH2 0x388 SWAP1 PUSH2 0x81F JUMP JUMPDEST PUSH1 0x40 MLOAD DUP1 SWAP2 SUB SWAP1 REVERT JUMPDEST PUSH0 PUSH20 0xFFFFFFFFFFFFFFFFFFFFFFFFFFFFFFFFFFFFFFFF AND PUSH1 0x1 PUSH0 DUP5 DUP2 MSTORE PUSH1 0x20 ADD SWAP1 DUP2 MSTORE PUSH1 0x20 ADD PUSH0 KECCAK256 PUSH0 ADD PUSH0 SWAP1 SLOAD SWAP1 PUSH2 0x100 EXP SWAP1 DIV PUSH20 0xFFFFFFFFFFFFFFFFFFFFFFFFFFFFFFFFFFFFFFFF AND PUSH20 0xFFFFFFFFFFFFFFFFFFFFFFFFFFFFFFFFFFFFFFFF AND EQ PUSH2 0x431 JUMPI PUSH1 0x40 MLOAD PUSH32 0x8C379A000000000000000000000000000000000000000000000000000000000 DUP2 MSTORE PUSH1 0x4 ADD PUSH2 0x428 SWAP1 PUSH2 0x887 JUMP JUMPDEST PUSH1 0x40 MLOAD DUP1 SWAP2 SUB SWAP1 REVERT JUMPDEST DUP1 PUSH1 0x1 PUSH0 DUP5 DUP2 MSTORE PUSH1 0x20 ADD SWAP1 DUP2 MSTORE PUSH1 0x20 ADD PUSH0 KECCAK256 PUSH0 ADD PUSH0 PUSH2 0x100 EXP DUP2 SLOAD DUP2 PUSH20 0xFFFFFFFFFFFFFFFFFFFFFFFFFFFFFFFFFFFFFFFF MUL NOT AND SWAP1 DUP4 PUSH20 0xFFFFFFFFFFFFFFFFFFFFFFFFFFFFFFFFFFFFFFFF AND MUL OR SWAP1 SSTORE POP DUP1 PUSH20 0xFFFFFFFFFFFFFFFFFFFFFFFFFFFFFFFFFFFFFFFF AND DUP3 PUSH32 0xF16E2A0CA5373D3B3C5E53640BF2953EA25184F229BA20D421B5FC6A635E3945 PUSH1 0x40 MLOAD PUSH1 0x40 MLOAD DUP1 SWAP2 SUB SWAP1 LOG3 POP POP JUMP JUMPDEST PUSH0 DUP1 SLOAD SWAP1 PUSH2 0x100 EXP SWAP1 DIV PUSH20 0xFFFFFFFFFFFFFFFFFFFFFFFFFFFFFFFFFFFFFFFF AND DUP2 JUMP JUMPDEST PUSH0 PUSH1 0x1 PUSH0 DUP4 DUP2 MSTORE PUSH1 0x20 ADD SWAP1 DUP2 MSTORE PUSH1 0x20 ADD PUSH0 KECCAK256 PUSH0 ADD PUSH0 SWAP1 SLOAD SWAP1 PUSH2 0x100 EXP SWAP1 DIV PUSH20 0xFFFFFFFFFFFFFFFFFFFFFFFFFFFFFFFFFFFFFFFF AND SWAP1 POP SWAP2 SWAP1 POP JUMP JUMPDEST PUSH1 0x1 PUSH1 0x20 MSTORE DUP1 PUSH0 MSTORE PUSH1 0x40 PUSH0 KECCAK256 PUSH0 SWAP2 POP SWAP1 POP DUP1 PUSH0 ADD PUSH0 SWAP1 SLOAD SWAP1 PUSH2 0x100 EXP SWAP1 DIV PUSH20 0xFFFFFFFFFFFFFFFFFFFFFFFFFFFFFFFFFFFFFFFF AND SWAP1 POP DUP2 JUMP JUMPDEST PUSH0 DUP1 REVERT JUMPDEST PUSH0 DUP2 SWAP1 POP SWAP2 SWAP1 POP JUMP JUMPDEST PUSH2 0x577 DUP2 PUSH2 0x565 JUMP JUMPDEST DUP2 EQ PUSH2 0x581 JUMPI PUSH0 DUP1 REVERT JUMPDEST POP JUMP JUMPDEST PUSH0 DUP2 CALLDATALOAD SWAP1 POP PUSH2 0x592 DUP2 PUSH2 0x56E JUMP JUMPDEST SWAP3 SWAP2 POP POP JUMP JUMPDEST PUSH0 PUSH20 0xFFFFFFFFFFFFFFFFFFFFFFFFFFFFFFFFFFFFFFFF DUP3 AND SWAP1 POP SWAP2 SWAP1 POP JUMP JUMPDEST PUSH0 PUSH2 0x5C1 DUP3 PUSH2 0x598 JUMP JUMPDEST SWAP1 POP SWAP2 SWAP1 POP JUMP JUMPDEST PUSH2 0x5D1 DUP2 PUSH2 0x5B7 JUMP JUMPDEST DUP2 EQ PUSH2 0x5DB JUMPI PUSH0 DUP1 REVERT JUMPDEST POP JUMP JUMPDEST PUSH0 DUP2 CALLDATALOAD SWAP1 POP PUSH2 0x5EC DUP2 PUSH2 0x5C8 JUMP JUMPDEST SWAP3 SWAP2 POP POP JUMP JUMPDEST PUSH0 DUP1 PUSH1 0x40 DUP4 DUP6 SUB SLT ISZERO PUSH2 0x608 JUMPI PUSH2 0x607 PUSH2 0x561 JUMP JUMPDEST JUMPDEST PUSH0 PUSH2 0x615 DUP6 DUP3 DUP7 ADD PUSH2 0x584 JUMP JUMPDEST SWAP3 POP POP PUSH1 0x20 PUSH2 0x626 DUP6 DUP3 DUP7 ADD PUSH2 0x5DE JUMP JUMPDEST SWAP2 POP POP SWAP3 POP SWAP3 SWAP1 POP JUMP JUMPDEST PUSH2 0x639 DUP2 PUSH2 0x5B7 JUMP JUMPDEST DUP3 MSTORE POP POP JUMP JUMPDEST PUSH0 PUSH1 0x20 DUP3 ADD SWAP1 POP PUSH2 0x652 PUSH0 DUP4 ADD DUP5 PUSH2 0x630 JUMP JUMPDEST SWAP3 SWAP2 POP POP JUMP JUMPDEST PUSH0 PUSH1 0x20 DUP3 DUP5 SUB SLT ISZERO PUSH2 0x66D JUMPI PUSH2 0x66C PUSH2 0x561 JUMP JUMPDEST JUMPDEST PUSH0 PUSH2 0x67A DUP5 DUP3 DUP6 ADD PUSH2 0x584 JUMP JUMPDEST SWAP2 POP POP SWAP3 SWAP2 POP POP JUMP JUMPDEST PUSH0 DUP3 DUP3 MSTORE PUSH1 0x20 DUP3 ADD SWAP1 POP SWAP3 SWAP2 POP POP JUMP JUMPDEST PUSH32 0x43616C6C6572206973206E6F7420746865206F776E6572206F66207468652070 PUSH0 DUP3 ADD MSTORE PUSH32 0x726F706572747900000000000000000000000000000000000000000000000000 PUSH1 0x20 DUP3 ADD MSTORE POP JUMP JUMPDEST PUSH0 PUSH2 0x6ED PUSH1 0x27 DUP4 PUSH2 0x683 JUMP JUMPDEST SWAP2 POP PUSH2 0x6F8 DUP3 PUSH2 0x693 JUMP JUMPDEST PUSH1 0x40 DUP3 ADD SWAP1 POP SWAP2 SWAP1 POP JUMP JUMPDEST PUSH0 PUSH1 0x20 DUP3 ADD SWAP1 POP DUP2 DUP2 SUB PUSH0 DUP4 ADD MSTORE PUSH2 0x71A DUP2 PUSH2 0x6E1 JUMP JUMPDEST SWAP1 POP SWAP2 SWAP1 POP JUMP JUMPDEST PUSH32 0x43616E6E6F74207472616E736665722070726F706572747920746F20796F7572 PUSH0 DUP3 ADD MSTORE PUSH32 0x73656C6600000000000000000000000000000000000000000000000000000000 PUSH1 0x20 DUP3 ADD MSTORE POP JUMP JUMPDEST PUSH0 PUSH2 0x77B PUSH1 0x24 DUP4 PUSH2 0x683 JUMP JUMPDEST SWAP2 POP PUSH2 0x786 DUP3 PUSH2 0x721 JUMP JUMPDEST PUSH1 0x40 DUP3 ADD SWAP1 POP SWAP2 SWAP1 POP JUMP JUMPDEST PUSH0 PUSH1 0x20 DUP3 ADD SWAP1 POP DUP2 DUP2 SUB PUSH0 DUP4 ADD MSTORE PUSH2 0x7A8 DUP2 PUSH2 0x76F JUMP JUMPDEST SWAP1 POP SWAP2 SWAP1 POP JUMP JUMPDEST PUSH32 0x4F6E6C79206F776E65722063616E2063616C6C20746869732066756E6374696F PUSH0 DUP3 ADD MSTORE PUSH32 0x6E00000000000000000000000000000000000000000000000000000000000000 PUSH1 0x20 DUP3 ADD MSTORE POP JUMP JUMPDEST PUSH0 PUSH2 0x809 PUSH1 0x21 DUP4 PUSH2 0x683 JUMP JUMPDEST SWAP2 POP PUSH2 0x814 DUP3 PUSH2 0x7AF JUMP JUMPDEST PUSH1 0x40 DUP3 ADD SWAP1 POP SWAP2 SWAP1 POP JUMP JUMPDEST PUSH0 PUSH1 0x20 DUP3 ADD SWAP1 POP DUP2 DUP2 SUB PUSH0 DUP4 ADD MSTORE PUSH2 0x836 DUP2 PUSH2 0x7FD JUMP JUMPDEST SWAP1 POP SWAP2 SWAP1 POP JUMP JUMPDEST PUSH32 0x50726F706572747920616C726561647920726567697374657265640000000000 PUSH0 DUP3 ADD MSTORE POP JUMP JUMPDEST PUSH0 PUSH2 0x871 PUSH1 0x1B DUP4 PUSH2 0x683 JUMP JUMPDEST SWAP2 POP PUSH2 0x87C DUP3 PUSH2 0x83D JUMP JUMPDEST PUSH1 0x20 DUP3 ADD SWAP1 POP SWAP2 SWAP1 POP JUMP JUMPDEST PUSH0 PUSH1 0x20 DUP3 ADD SWAP1 POP DUP2 DUP2 SUB PUSH0 DUP4 ADD MSTORE PUSH2 0x89E DUP2 PUSH2 0x865 JUMP JUMPDEST SWAP1 POP SWAP2 SWAP1 POP JUMP INVALID LOG2 PUSH5 0x6970667358 0x22 SLT KECCAK256 DUP2 BYTE 0xCD PUSH13 0x48D6A953211D9CE4B17CF17884 0x5C LOG3 PUSH17 0xCA031A671CB12B94B1707DD564736F6C63 NUMBER STOP ADDMOD AND STOP CALLER "
				},
				"gasEstimates": {
					"creation": {
						"codeDepositCost": "453400",
						"executionCost": "24749",
						"totalCost": "478149"
					},
					"external": {
						"getPropertyOwner(uint256)": "2901",
						"owner()": "2527",
						"properties(uint256)": "2916",
						"registerProperty(uint256,address)": "30922",
						"transferOwnership(uint256,address)": "31380"
					}
				},
				"methodIdentifiers": {
					"getPropertyOwner(uint256)": "e34fc531",
					"owner()": "8da5cb5b",
					"properties(uint256)": "f7b10808",
					"registerProperty(uint256,address)": "87b7a715",
					"transferOwnership(uint256,address)": "29507f73"
				}
			},
			"storageLayout": {
				"storage": [
					{
						"astId": 3,
						"contract": "contracts/PropertyRegistry.sol:PropertyRegistry",
						"label": "owner",
						"offset": 0,
						"slot": "0",
						"type": "t_address"
					},
					{
						"astId": 38,
						"contract": "contracts/PropertyRegistry.sol:PropertyRegistry",
						"label": "properties",
						"offset": 0,
						"slot": "1",
						"type": "t_mapping(t_uint256,t_struct(PropertyDetails)33_storage)"
					}
				],
				"types": {
					"t_address": {
						"encoding": "inplace",
						"label": "address",
						"numberOfBytes": "20"
					},
					"t_mapping(t_uint256,t_struct(PropertyDetails)33_storage)": {
						"encoding": "mapping",
						"key": "t_uint256",
						"label": "mapping(uint256 => struct PropertyRegistry.PropertyDetails)",
						"numberOfBytes": "32",
						"value": "t_struct(PropertyDetails)33_storage"
					},
					"t_struct(PropertyDetails)33_storage": {
						"encoding": "inplace",
						"label": "struct PropertyRegistry.PropertyDetails",
						"members": [
							{
								"astId": 32,
								"contract": "contracts/PropertyRegistry.sol:PropertyRegistry",
								"label": "owner",
								"offset": 0,
								"slot": "0",
								"type": "t_address"
							}
						],
						"numberOfBytes": "32"
					},
					"t_uint256": {
						"encoding": "inplace",
						"label": "uint256",
						"numberOfBytes": "32"
					}
				}
			},
			"userdoc": {
				"kind": "user",
				"methods": {},
				"version": 1
			}
		}
	}
}